{
  "_format": "hh-sol-artifact-1",
  "contractName": "Vote",
  "sourceName": "contracts/Vote.sol",
  "abi": [
    {
      "inputs": [
        {
          "internalType": "contract IWorldID",
          "name": "_worldId",
          "type": "address"
        },
        {
          "internalType": "string",
          "name": "_appId",
          "type": "string"
        },
        {
          "internalType": "string",
          "name": "_actionId",
          "type": "string"
        }
      ],
      "stateMutability": "nonpayable",
      "type": "constructor"
    },
    {
      "anonymous": false,
      "inputs": [
        {
          "indexed": false,
          "internalType": "uint256",
          "name": "pollId",
          "type": "uint256"
        }
      ],
      "name": "PollCreated",
      "type": "event"
    },
    {
      "anonymous": false,
      "inputs": [
        {
          "indexed": false,
          "internalType": "uint256",
          "name": "pollId",
          "type": "uint256"
        },
        {
          "indexed": false,
          "internalType": "bool",
          "name": "voteType",
          "type": "bool"
        }
      ],
      "name": "VoteCast",
      "type": "event"
    },
    {
      "inputs": [
        {
          "internalType": "string",
          "name": "_title",
          "type": "string"
        },
        {
          "internalType": "string",
          "name": "_description",
          "type": "string"
        },
        {
          "internalType": "string",
          "name": "_fileHash",
          "type": "string"
        }
      ],
      "name": "createPoll",
      "outputs": [
        {
          "internalType": "uint256",
          "name": "",
          "type": "uint256"
        }
      ],
      "stateMutability": "nonpayable",
      "type": "function"
    },
    {
      "inputs": [],
      "name": "getAllPolls",
      "outputs": [
        {
          "components": [
            {
              "internalType": "string",
              "name": "title",
              "type": "string"
            },
            {
              "internalType": "string",
              "name": "description",
              "type": "string"
            },
            {
              "internalType": "uint256",
              "name": "yes",
              "type": "uint256"
            },
            {
              "internalType": "uint256",
              "name": "no",
              "type": "uint256"
            },
            {
              "internalType": "string",
              "name": "fileHash",
              "type": "string"
            },
            {
              "internalType": "uint256[]",
              "name": "voters",
              "type": "uint256[]"
            }
          ],
          "internalType": "struct Vote.Poll[]",
          "name": "",
          "type": "tuple[]"
        }
      ],
      "stateMutability": "view",
      "type": "function"
    },
    {
      "inputs": [
        {
          "internalType": "uint256",
          "name": "pollId",
          "type": "uint256"
        }
      ],
      "name": "getPoll",
      "outputs": [
        {
          "components": [
            {
              "internalType": "string",
              "name": "title",
              "type": "string"
            },
            {
              "internalType": "string",
              "name": "description",
              "type": "string"
            },
            {
              "internalType": "uint256",
              "name": "yes",
              "type": "uint256"
            },
            {
              "internalType": "uint256",
              "name": "no",
              "type": "uint256"
            },
            {
              "internalType": "string",
              "name": "fileHash",
              "type": "string"
            },
            {
              "internalType": "uint256[]",
              "name": "voters",
              "type": "uint256[]"
            }
          ],
          "internalType": "struct Vote.Poll",
          "name": "",
          "type": "tuple"
        }
      ],
      "stateMutability": "view",
      "type": "function"
    },
    {
      "inputs": [
        {
          "internalType": "uint256",
          "name": "pollId",
          "type": "uint256"
        },
        {
          "internalType": "bool",
          "name": "voteType",
          "type": "bool"
        },
        {
          "internalType": "address",
          "name": "signal",
          "type": "address"
        },
        {
          "internalType": "uint256",
          "name": "root",
          "type": "uint256"
        },
        {
          "internalType": "uint256",
          "name": "nullifierhash",
          "type": "uint256"
        },
        {
          "internalType": "uint256[8]",
          "name": "proof",
          "type": "uint256[8]"
        }
      ],
      "name": "vote",
      "outputs": [],
      "stateMutability": "nonpayable",
      "type": "function"
    }
  ],
  "bytecode": "0x60c060405260006001553480156200001657600080fd5b506040516200210d3803806200210d83398181016040528101906200003c919062000334565b8273ffffffffffffffffffffffffffffffffffffffff1660808173ffffffffffffffffffffffffffffffffffffffff1681525050620000df620000ab836040516020016200008b91906200041b565b604051602081830303815290604052620000ef60201b620009361760201c565b82604051602001620000bf92919062000463565b604051602081830303815290604052620000ef60201b620009361760201c565b60a08181525050505050620004f5565b6000600882604051602001620001069190620004dc565b6040516020818303038152906040528051906020012060001c901c9050919050565b6000604051905090565b600080fd5b600080fd5b600073ffffffffffffffffffffffffffffffffffffffff82169050919050565b600062000169826200013c565b9050919050565b60006200017d826200015c565b9050919050565b6200018f8162000170565b81146200019b57600080fd5b50565b600081519050620001af8162000184565b92915050565b600080fd5b600080fd5b6000601f19601f8301169050919050565b7f4e487b7100000000000000000000000000000000000000000000000000000000600052604160045260246000fd5b6200020a82620001bf565b810181811067ffffffffffffffff821117156200022c576200022b620001d0565b5b80604052505050565b60006200024162000128565b90506200024f8282620001ff565b919050565b600067ffffffffffffffff821115620002725762000271620001d0565b5b6200027d82620001bf565b9050602081019050919050565b60005b83811015620002aa5780820151818401526020810190506200028d565b60008484015250505050565b6000620002cd620002c78462000254565b62000235565b905082815260208101848484011115620002ec57620002eb620001ba565b5b620002f98482856200028a565b509392505050565b600082601f830112620003195762000318620001b5565b5b81516200032b848260208601620002b6565b91505092915050565b60008060006060848603121562000350576200034f62000132565b5b600062000360868287016200019e565b935050602084015167ffffffffffffffff81111562000384576200038362000137565b5b620003928682870162000301565b925050604084015167ffffffffffffffff811115620003b657620003b562000137565b5b620003c48682870162000301565b9150509250925092565b600081519050919050565b600081905092915050565b6000620003f182620003ce565b620003fd8185620003d9565b93506200040f8185602086016200028a565b80840191505092915050565b6000620004298284620003e4565b915081905092915050565b6000819050919050565b6000819050919050565b6200045d620004578262000434565b6200043e565b82525050565b600062000471828562000448565b602082019150620004838284620003e4565b91508190509392505050565b600081519050919050565b600081905092915050565b6000620004b2826200048f565b620004be81856200049a565b9350620004d08185602086016200028a565b80840191505092915050565b6000620004ea8284620004a5565b915081905092915050565b60805160a051611bf26200051b6000396000610c6501526000610bfd0152611bf26000f3fe608060405234801561001057600080fd5b506004361061004c5760003560e01c80631a8cbcaa1461005157806332b633fa146100815780635030a3cb1461009f578063e201201c146100bb575b600080fd5b61006b60048036038101906100669190610e5d565b6100eb565b6040516100789190611076565b60405180910390f35b610089610391565b60405161009691906111f8565b60405180910390f35b6100b960048036038101906100b491906112d7565b610612565b005b6100d560048036038101906100d0919061149a565b6107af565b6040516100e29190611550565b60405180910390f35b6100f3610d73565b6100fc8261096d565b61013b576040517f08c379a0000000000000000000000000000000000000000000000000000000008152600401610132906115c8565b60405180910390fd5b6000828154811061014f5761014e6115e8565b5b90600052602060002090600602016040518060c001604052908160008201805461017890611646565b80601f01602080910402602001604051908101604052809291908181526020018280546101a490611646565b80156101f15780601f106101c6576101008083540402835291602001916101f1565b820191906000526020600020905b8154815290600101906020018083116101d457829003601f168201915b5050505050815260200160018201805461020a90611646565b80601f016020809104026020016040519081016040528092919081815260200182805461023690611646565b80156102835780601f1061025857610100808354040283529160200191610283565b820191906000526020600020905b81548152906001019060200180831161026657829003601f168201915b5050505050815260200160028201548152602001600382015481526020016004820180546102b090611646565b80601f01602080910402602001604051908101604052809291908181526020018280546102dc90611646565b80156103295780601f106102fe57610100808354040283529160200191610329565b820191906000526020600020905b81548152906001019060200180831161030c57829003601f168201915b505050505081526020016005820180548060200260200160405190810160405280929190818152602001828054801561038157602002820191906000526020600020905b81548152602001906001019080831161036d575b5050505050815250509050919050565b60606000805480602002602001604051908101604052809291908181526020016000905b8282101561060957838290600052602060002090600602016040518060c00160405290816000820180546103e890611646565b80601f016020809104026020016040519081016040528092919081815260200182805461041490611646565b80156104615780601f1061043657610100808354040283529160200191610461565b820191906000526020600020905b81548152906001019060200180831161044457829003601f168201915b5050505050815260200160018201805461047a90611646565b80601f01602080910402602001604051908101604052809291908181526020018280546104a690611646565b80156104f35780601f106104c8576101008083540402835291602001916104f3565b820191906000526020600020905b8154815290600101906020018083116104d657829003601f168201915b50505050508152602001600282015481526020016003820154815260200160048201805461052090611646565b80601f016020809104026020016040519081016040528092919081815260200182805461054c90611646565b80156105995780601f1061056e57610100808354040283529160200191610599565b820191906000526020600020905b81548152906001019060200180831161057c57829003601f168201915b50505050508152602001600582018054806020026020016040519081016040528092919081815260200182805480156105f157602002820191906000526020600020905b8154815260200190600101908083116105dd575b505050505081525050815260200190600101906103b5565b50505050905090565b61061b8661096d565b61065a576040517f08c379a0000000000000000000000000000000000000000000000000000000008152600401610651906115c8565b60405180910390fd5b610667848484848a61098e565b6106a6576040517f08c379a000000000000000000000000000000000000000000000000000000000815260040161069d906116c3565b60405180910390fd5b84156106ec57600086815481106106c0576106bf6115e8565b5b906000526020600020906006020160020160008154809291906106e290611712565b919050555061072e565b8461072d5760008681548110610705576107046115e8565b5b9060005260206000209060060201600301600081548092919061072790611712565b91905055505b5b60008681548110610742576107416115e8565b5b90600052602060002090600602016005016001816001815401808255809150500390600052602060002050507fa569f04ac50c7dc602af46da32d6b4bb55adafc0bc482968f959264ea5edde96868660405161079f929190611769565b60405180910390a1505050505050565b6000806040518060c001604052808681526020018581526020016000815260200160008152602001848152602001600067ffffffffffffffff8111156107f8576107f761136f565b5b6040519080825280602002602001820160405280156108265781602001602082028036833780820191505090505b5081525090506000819080600181540180825580915050600190039060005260206000209060060201600090919091909150600082015181600001908161086d919061193e565b506020820151816001019081610883919061193e565b50604082015181600201556060820151816003015560808201518160040190816108ad919061193e565b5060a08201518160050190805190602001906108ca929190610da9565b5050507fab0309b6731a34e8750174d3c2c9591a34a2bf0c1425a30b34122be08d0507396001546040516108fe9190611550565b60405180910390a16001600081548092919061091990611712565b91905055506001805461092c9190611a10565b9150509392505050565b600060088260405160200161094b9190611a8b565b6040516020818303038152906040528051906020012060001c901c9050919050565b600080805490508210156109845760019050610989565b600090505b919050565b600080600083815481106109a5576109a46115e8565b5b90600052602060002090600602019050610bec816040518060c00160405290816000820180546109d490611646565b80601f0160208091040260200160405190810160405280929190818152602001828054610a0090611646565b8015610a4d5780601f10610a2257610100808354040283529160200191610a4d565b820191906000526020600020905b815481529060010190602001808311610a3057829003601f168201915b50505050508152602001600182018054610a6690611646565b80601f0160208091040260200160405190810160405280929190818152602001828054610a9290611646565b8015610adf5780601f10610ab457610100808354040283529160200191610adf565b820191906000526020600020905b815481529060010190602001808311610ac257829003601f168201915b505050505081526020016002820154815260200160038201548152602001600482018054610b0c90611646565b80601f0160208091040260200160405190810160405280929190818152602001828054610b3890611646565b8015610b855780601f10610b5a57610100808354040283529160200191610b85565b820191906000526020600020905b815481529060010190602001808311610b6857829003601f168201915b5050505050815260200160058201805480602002602001604051908101604052809291908181526020018280548015610bdd57602002820191906000526020600020905b815481526020019060010190808311610bc9575b50505050508152505086610d10565b15610bfb576000915050610d07565b7f000000000000000000000000000000000000000000000000000000000000000073ffffffffffffffffffffffffffffffffffffffff16633bc778e3876001610c628b604051602001610c4e9190611aea565b604051602081830303815290604052610936565b897f00000000000000000000000000000000000000000000000000000000000000008a6040518763ffffffff1660e01b8152600401610ca696959493929190611b5a565b60006040518083038186803b158015610cbe57600080fd5b505afa158015610cd2573d6000803e3d6000fd5b505050508060050185908060018154018082558091505060019003906000526020600020016000909190919091505560019150505b95945050505050565b600080600090505b8360a0015151811015610d6757828460a001518281518110610d3d57610d3c6115e8565b5b602002602001015103610d54576001915050610d6d565b8080610d5f90611712565b915050610d18565b50600090505b92915050565b6040518060c001604052806060815260200160608152602001600081526020016000815260200160608152602001606081525090565b828054828255906000526020600020908101928215610de5579160200282015b82811115610de4578251825591602001919060010190610dc9565b5b509050610df29190610df6565b5090565b5b80821115610e0f576000816000905550600101610df7565b5090565b6000604051905090565b600080fd5b600080fd5b6000819050919050565b610e3a81610e27565b8114610e4557600080fd5b50565b600081359050610e5781610e31565b92915050565b600060208284031215610e7357610e72610e1d565b5b6000610e8184828501610e48565b91505092915050565b600081519050919050565b600082825260208201905092915050565b60005b83811015610ec4578082015181840152602081019050610ea9565b60008484015250505050565b6000601f19601f8301169050919050565b6000610eec82610e8a565b610ef68185610e95565b9350610f06818560208601610ea6565b610f0f81610ed0565b840191505092915050565b610f2381610e27565b82525050565b600081519050919050565b600082825260208201905092915050565b6000819050602082019050919050565b6000610f618383610f1a565b60208301905092915050565b6000602082019050919050565b6000610f8582610f29565b610f8f8185610f34565b9350610f9a83610f45565b8060005b83811015610fcb578151610fb28882610f55565b9750610fbd83610f6d565b925050600181019050610f9e565b5085935050505092915050565b600060c0830160008301518482036000860152610ff58282610ee1565b9150506020830151848203602086015261100f8282610ee1565b91505060408301516110246040860182610f1a565b5060608301516110376060860182610f1a565b506080830151848203608086015261104f8282610ee1565b91505060a083015184820360a08601526110698282610f7a565b9150508091505092915050565b600060208201905081810360008301526110908184610fd8565b905092915050565b600081519050919050565b600082825260208201905092915050565b6000819050602082019050919050565b600060c08301600083015184820360008601526110e18282610ee1565b915050602083015184820360208601526110fb8282610ee1565b91505060408301516111106040860182610f1a565b5060608301516111236060860182610f1a565b506080830151848203608086015261113b8282610ee1565b91505060a083015184820360a08601526111558282610f7a565b9150508091505092915050565b600061116e83836110c4565b905092915050565b6000602082019050919050565b600061118e82611098565b61119881856110a3565b9350836020820285016111aa856110b4565b8060005b858110156111e657848403895281516111c78582611162565b94506111d283611176565b925060208a019950506001810190506111ae565b50829750879550505050505092915050565b600060208201905081810360008301526112128184611183565b905092915050565b60008115159050919050565b61122f8161121a565b811461123a57600080fd5b50565b60008135905061124c81611226565b92915050565b600073ffffffffffffffffffffffffffffffffffffffff82169050919050565b600061127d82611252565b9050919050565b61128d81611272565b811461129857600080fd5b50565b6000813590506112aa81611284565b92915050565b600080fd5b6000819050826020600802820111156112d1576112d06112b0565b5b92915050565b6000806000806000806101a087890312156112f5576112f4610e1d565b5b600061130389828a01610e48565b965050602061131489828a0161123d565b955050604061132589828a0161129b565b945050606061133689828a01610e48565b935050608061134789828a01610e48565b92505060a061135889828a016112b5565b9150509295509295509295565b600080fd5b600080fd5b7f4e487b7100000000000000000000000000000000000000000000000000000000600052604160045260246000fd5b6113a782610ed0565b810181811067ffffffffffffffff821117156113c6576113c561136f565b5b80604052505050565b60006113d9610e13565b90506113e5828261139e565b919050565b600067ffffffffffffffff8211156114055761140461136f565b5b61140e82610ed0565b9050602081019050919050565b82818337600083830152505050565b600061143d611438846113ea565b6113cf565b9050828152602081018484840111156114595761145861136a565b5b61146484828561141b565b509392505050565b600082601f83011261148157611480611365565b5b813561149184826020860161142a565b91505092915050565b6000806000606084860312156114b3576114b2610e1d565b5b600084013567ffffffffffffffff8111156114d1576114d0610e22565b5b6114dd8682870161146c565b935050602084013567ffffffffffffffff8111156114fe576114fd610e22565b5b61150a8682870161146c565b925050604084013567ffffffffffffffff81111561152b5761152a610e22565b5b6115378682870161146c565b9150509250925092565b61154a81610e27565b82525050565b60006020820190506115656000830184611541565b92915050565b600082825260208201905092915050565b7f696e76616c696420706f6c6c0000000000000000000000000000000000000000600082015250565b60006115b2600c8361156b565b91506115bd8261157c565b602082019050919050565b600060208201905081810360008301526115e1816115a5565b9050919050565b7f4e487b7100000000000000000000000000000000000000000000000000000000600052603260045260246000fd5b7f4e487b7100000000000000000000000000000000000000000000000000000000600052602260045260246000fd5b6000600282049050600182168061165e57607f821691505b60208210810361167157611670611617565b5b50919050565b7f7573657220616c726561647920766f7465640000000000000000000000000000600082015250565b60006116ad60128361156b565b91506116b882611677565b602082019050919050565b600060208201905081810360008301526116dc816116a0565b9050919050565b7f4e487b7100000000000000000000000000000000000000000000000000000000600052601160045260246000fd5b600061171d82610e27565b91507fffffffffffffffffffffffffffffffffffffffffffffffffffffffffffffffff820361174f5761174e6116e3565b5b600182019050919050565b6117638161121a565b82525050565b600060408201905061177e6000830185611541565b61178b602083018461175a565b9392505050565b60008190508160005260206000209050919050565b60006020601f8301049050919050565b600082821b905092915050565b6000600883026117f47fffffffffffffffffffffffffffffffffffffffffffffffffffffffffffffffff826117b7565b6117fe86836117b7565b95508019841693508086168417925050509392505050565b6000819050919050565b600061183b61183661183184610e27565b611816565b610e27565b9050919050565b6000819050919050565b61185583611820565b61186961186182611842565b8484546117c4565b825550505050565b600090565b61187e611871565b61188981848461184c565b505050565b5b818110156118ad576118a2600082611876565b60018101905061188f565b5050565b601f8211156118f2576118c381611792565b6118cc846117a7565b810160208510156118db578190505b6118ef6118e7856117a7565b83018261188e565b50505b505050565b600082821c905092915050565b6000611915600019846008026118f7565b1980831691505092915050565b600061192e8383611904565b9150826002028217905092915050565b61194782610e8a565b67ffffffffffffffff8111156119605761195f61136f565b5b61196a8254611646565b6119758282856118b1565b600060209050601f8311600181146119a85760008415611996578287015190505b6119a08582611922565b865550611a08565b601f1984166119b686611792565b60005b828110156119de578489015182556001820191506020850194506020810190506119b9565b868310156119fb57848901516119f7601f891682611904565b8355505b6001600288020188555050505b505050505050565b6000611a1b82610e27565b9150611a2683610e27565b9250828203905081811115611a3e57611a3d6116e3565b5b92915050565b600081519050919050565b600081905092915050565b6000611a6582611a44565b611a6f8185611a4f565b9350611a7f818560208601610ea6565b80840191505092915050565b6000611a978284611a5a565b915081905092915050565b60008160601b9050919050565b6000611aba82611aa2565b9050919050565b6000611acc82611aaf565b9050919050565b611ae4611adf82611272565b611ac1565b82525050565b6000611af68284611ad3565b60148201915081905092915050565b6000819050919050565b6000611b2a611b25611b2084611b05565b611816565b610e27565b9050919050565b611b3a81611b0f565b82525050565b82818337505050565b611b566101008383611b40565b5050565b60006101a082019050611b706000830189611541565b611b7d6020830188611b31565b611b8a6040830187611541565b611b976060830186611541565b611ba46080830185611541565b611bb160a0830184611b49565b97965050505050505056fea2646970667358221220f2289667194c5d1b6b820f73c046b2da6d9dc4a81b626bb3299b62a344c4e10164736f6c63430008120033",
  "linkReferences": {},
  "deployedLinkReferences": {}
}