{
  "_format": "hh-sol-artifact-1",
  "contractName": "Vote",
  "sourceName": "contracts/Vote.sol",
  "abi": [
    {
      "inputs": [
        {
          "internalType": "contract IWorldID",
          "name": "_worldId",
          "type": "address"
        },
        {
          "internalType": "string",
          "name": "_appId",
          "type": "string"
        }
      ],
      "stateMutability": "nonpayable",
      "type": "constructor"
    },
    {
      "anonymous": false,
      "inputs": [
        {
          "indexed": false,
          "internalType": "uint256",
          "name": "pollId",
          "type": "uint256"
        }
      ],
      "name": "PollCreated",
      "type": "event"
    },
    {
      "anonymous": false,
      "inputs": [
        {
          "indexed": false,
          "internalType": "uint256",
          "name": "pollId",
          "type": "uint256"
        },
        {
          "indexed": false,
          "internalType": "bool",
          "name": "voteType",
          "type": "bool"
        }
      ],
      "name": "VoteCast",
      "type": "event"
    },
    {
      "inputs": [
        {
          "internalType": "string",
          "name": "_title",
          "type": "string"
        },
        {
          "internalType": "string",
          "name": "_description",
          "type": "string"
        },
        {
          "internalType": "string",
          "name": "_fileHash",
          "type": "string"
        }
      ],
      "name": "createPoll",
      "outputs": [
        {
          "internalType": "uint256",
          "name": "",
          "type": "uint256"
        }
      ],
      "stateMutability": "nonpayable",
      "type": "function"
    },
    {
      "inputs": [],
      "name": "getAllPolls",
      "outputs": [
        {
          "components": [
            {
              "internalType": "string",
              "name": "title",
              "type": "string"
            },
            {
              "internalType": "string",
              "name": "description",
              "type": "string"
            },
            {
              "internalType": "uint256",
              "name": "yes",
              "type": "uint256"
            },
            {
              "internalType": "uint256",
              "name": "no",
              "type": "uint256"
            },
            {
              "internalType": "string",
              "name": "fileHash",
              "type": "string"
            },
            {
              "internalType": "uint256[]",
              "name": "voters",
              "type": "uint256[]"
            }
          ],
          "internalType": "struct Vote.Poll[]",
          "name": "",
          "type": "tuple[]"
        }
      ],
      "stateMutability": "view",
      "type": "function"
    },
    {
      "inputs": [
        {
          "internalType": "uint256",
          "name": "pollId",
          "type": "uint256"
        }
      ],
      "name": "getPoll",
      "outputs": [
        {
          "components": [
            {
              "internalType": "string",
              "name": "title",
              "type": "string"
            },
            {
              "internalType": "string",
              "name": "description",
              "type": "string"
            },
            {
              "internalType": "uint256",
              "name": "yes",
              "type": "uint256"
            },
            {
              "internalType": "uint256",
              "name": "no",
              "type": "uint256"
            },
            {
              "internalType": "string",
              "name": "fileHash",
              "type": "string"
            },
            {
              "internalType": "uint256[]",
              "name": "voters",
              "type": "uint256[]"
            }
          ],
          "internalType": "struct Vote.Poll",
          "name": "",
          "type": "tuple"
        }
      ],
      "stateMutability": "view",
      "type": "function"
    },
    {
      "inputs": [
        {
          "internalType": "uint256",
          "name": "pollId",
          "type": "uint256"
        },
        {
          "internalType": "bool",
          "name": "voteType",
          "type": "bool"
        },
        {
          "internalType": "address",
          "name": "signal",
          "type": "address"
        },
        {
          "internalType": "uint256",
          "name": "root",
          "type": "uint256"
        },
        {
          "internalType": "uint256",
          "name": "nullifierhash",
          "type": "uint256"
        },
        {
          "internalType": "uint256[8]",
          "name": "proof",
          "type": "uint256[8]"
        }
      ],
      "name": "vote",
      "outputs": [],
      "stateMutability": "nonpayable",
      "type": "function"
    }
  ],
  "bytecode": "0x60c060405260006001553480156200001657600080fd5b5060405162001d0838038062001d0883398181016040528101906200003c919062000333565b8173ffffffffffffffffffffffffffffffffffffffff1660808173ffffffffffffffffffffffffffffffffffffffff1681525050620000df620000ab826040516020016200008b9190620003e6565b604051602081830303815290604052620000ee60201b620009361760201c565b30604051602001620000bf9291906200047e565b604051602081830303815290604052620000ee60201b620009361760201c565b60a08181525050505062000514565b6000600882604051602001620001059190620004fb565b6040516020818303038152906040528051906020012060001c901c9050919050565b6000604051905090565b600080fd5b600080fd5b600073ffffffffffffffffffffffffffffffffffffffff82169050919050565b600062000168826200013b565b9050919050565b60006200017c826200015b565b9050919050565b6200018e816200016f565b81146200019a57600080fd5b50565b600081519050620001ae8162000183565b92915050565b600080fd5b600080fd5b6000601f19601f8301169050919050565b7f4e487b7100000000000000000000000000000000000000000000000000000000600052604160045260246000fd5b6200020982620001be565b810181811067ffffffffffffffff821117156200022b576200022a620001cf565b5b80604052505050565b60006200024062000127565b90506200024e8282620001fe565b919050565b600067ffffffffffffffff821115620002715762000270620001cf565b5b6200027c82620001be565b9050602081019050919050565b60005b83811015620002a95780820151818401526020810190506200028c565b60008484015250505050565b6000620002cc620002c68462000253565b62000234565b905082815260208101848484011115620002eb57620002ea620001b9565b5b620002f884828562000289565b509392505050565b600082601f830112620003185762000317620001b4565b5b81516200032a848260208601620002b5565b91505092915050565b600080604083850312156200034d576200034c62000131565b5b60006200035d858286016200019d565b925050602083015167ffffffffffffffff81111562000381576200038062000136565b5b6200038f8582860162000300565b9150509250929050565b600081519050919050565b600081905092915050565b6000620003bc8262000399565b620003c88185620003a4565b9350620003da81856020860162000289565b80840191505092915050565b6000620003f48284620003af565b915081905092915050565b6000819050919050565b6000819050919050565b620004286200042282620003ff565b62000409565b82525050565b60008160601b9050919050565b600062000448826200042e565b9050919050565b60006200045c826200043b565b9050919050565b6200047862000472826200015b565b6200044f565b82525050565b60006200048c828562000413565b6020820191506200049e828462000463565b6014820191508190509392505050565b600081519050919050565b600081905092915050565b6000620004d182620004ae565b620004dd8185620004b9565b9350620004ef81856020860162000289565b80840191505092915050565b6000620005098284620004c4565b915081905092915050565b60805160a0516117d46200053460003960005050600050506117d46000f3fe608060405234801561001057600080fd5b506004361061004c5760003560e01c80631a8cbcaa1461005157806332b633fa146100815780635030a3cb1461009f578063e201201c146100bb575b600080fd5b61006b60048036038101906100669190610b59565b6100eb565b6040516100789190610d72565b60405180910390f35b610089610391565b6040516100969190610ef4565b60405180910390f35b6100b960048036038101906100b49190610fd3565b610612565b005b6100d560048036038101906100d09190611196565b6107af565b6040516100e2919061124c565b60405180910390f35b6100f3610a6f565b6100fc8261096d565b61013b576040517f08c379a0000000000000000000000000000000000000000000000000000000008152600401610132906112c4565b60405180910390fd5b6000828154811061014f5761014e6112e4565b5b90600052602060002090600602016040518060c001604052908160008201805461017890611342565b80601f01602080910402602001604051908101604052809291908181526020018280546101a490611342565b80156101f15780601f106101c6576101008083540402835291602001916101f1565b820191906000526020600020905b8154815290600101906020018083116101d457829003601f168201915b5050505050815260200160018201805461020a90611342565b80601f016020809104026020016040519081016040528092919081815260200182805461023690611342565b80156102835780601f1061025857610100808354040283529160200191610283565b820191906000526020600020905b81548152906001019060200180831161026657829003601f168201915b5050505050815260200160028201548152602001600382015481526020016004820180546102b090611342565b80601f01602080910402602001604051908101604052809291908181526020018280546102dc90611342565b80156103295780601f106102fe57610100808354040283529160200191610329565b820191906000526020600020905b81548152906001019060200180831161030c57829003601f168201915b505050505081526020016005820180548060200260200160405190810160405280929190818152602001828054801561038157602002820191906000526020600020905b81548152602001906001019080831161036d575b5050505050815250509050919050565b60606000805480602002602001604051908101604052809291908181526020016000905b8282101561060957838290600052602060002090600602016040518060c00160405290816000820180546103e890611342565b80601f016020809104026020016040519081016040528092919081815260200182805461041490611342565b80156104615780601f1061043657610100808354040283529160200191610461565b820191906000526020600020905b81548152906001019060200180831161044457829003601f168201915b5050505050815260200160018201805461047a90611342565b80601f01602080910402602001604051908101604052809291908181526020018280546104a690611342565b80156104f35780601f106104c8576101008083540402835291602001916104f3565b820191906000526020600020905b8154815290600101906020018083116104d657829003601f168201915b50505050508152602001600282015481526020016003820154815260200160048201805461052090611342565b80601f016020809104026020016040519081016040528092919081815260200182805461054c90611342565b80156105995780601f1061056e57610100808354040283529160200191610599565b820191906000526020600020905b81548152906001019060200180831161057c57829003601f168201915b50505050508152602001600582018054806020026020016040519081016040528092919081815260200182805480156105f157602002820191906000526020600020905b8154815260200190600101908083116105dd575b505050505081525050815260200190600101906103b5565b50505050905090565b61061b8661096d565b61065a576040517f08c379a0000000000000000000000000000000000000000000000000000000008152600401610651906112c4565b60405180910390fd5b610667848484848a61098e565b6106a6576040517f08c379a000000000000000000000000000000000000000000000000000000000815260040161069d906113bf565b60405180910390fd5b84156106ec57600086815481106106c0576106bf6112e4565b5b906000526020600020906006020160020160008154809291906106e29061140e565b919050555061072e565b8461072d5760008681548110610705576107046112e4565b5b906000526020600020906006020160030160008154809291906107279061140e565b91905055505b5b60008681548110610742576107416112e4565b5b90600052602060002090600602016005016001816001815401808255809150500390600052602060002050507fa569f04ac50c7dc602af46da32d6b4bb55adafc0bc482968f959264ea5edde96868660405161079f929190611465565b60405180910390a1505050505050565b6000806040518060c001604052808681526020018581526020016000815260200160008152602001848152602001600067ffffffffffffffff8111156107f8576107f761106b565b5b6040519080825280602002602001820160405280156108265781602001602082028036833780820191505090505b5081525090506000819080600181540180825580915050600190039060005260206000209060060201600090919091909150600082015181600001908161086d919061163a565b506020820151816001019081610883919061163a565b50604082015181600201556060820151816003015560808201518160040190816108ad919061163a565b5060a08201518160050190805190602001906108ca929190610aa5565b5050507fab0309b6731a34e8750174d3c2c9591a34a2bf0c1425a30b34122be08d0507396001546040516108fe919061124c565b60405180910390a1600160008154809291906109199061140e565b91905055506001805461092c919061170c565b9150509392505050565b600060088260405160200161094b9190611787565b6040516020818303038152906040528051906020012060001c901c9050919050565b600080805490508210156109845760019050610989565b600090505b919050565b600080600083815481106109a5576109a46112e4565b5b906000526020600020906006020190506109bf8186610a08565b156109ce5760009150506109ff565b8060050185908060018154018082558091505060019003906000526020600020016000909190919091505560019150505b95945050505050565b600080600090505b8360050180549050811015610a635782846005018281548110610a3657610a356112e4565b5b906000526020600020015403610a50576001915050610a69565b8080610a5b9061140e565b915050610a10565b50600090505b92915050565b6040518060c001604052806060815260200160608152602001600081526020016000815260200160608152602001606081525090565b828054828255906000526020600020908101928215610ae1579160200282015b82811115610ae0578251825591602001919060010190610ac5565b5b509050610aee9190610af2565b5090565b5b80821115610b0b576000816000905550600101610af3565b5090565b6000604051905090565b600080fd5b600080fd5b6000819050919050565b610b3681610b23565b8114610b4157600080fd5b50565b600081359050610b5381610b2d565b92915050565b600060208284031215610b6f57610b6e610b19565b5b6000610b7d84828501610b44565b91505092915050565b600081519050919050565b600082825260208201905092915050565b60005b83811015610bc0578082015181840152602081019050610ba5565b60008484015250505050565b6000601f19601f8301169050919050565b6000610be882610b86565b610bf28185610b91565b9350610c02818560208601610ba2565b610c0b81610bcc565b840191505092915050565b610c1f81610b23565b82525050565b600081519050919050565b600082825260208201905092915050565b6000819050602082019050919050565b6000610c5d8383610c16565b60208301905092915050565b6000602082019050919050565b6000610c8182610c25565b610c8b8185610c30565b9350610c9683610c41565b8060005b83811015610cc7578151610cae8882610c51565b9750610cb983610c69565b925050600181019050610c9a565b5085935050505092915050565b600060c0830160008301518482036000860152610cf18282610bdd565b91505060208301518482036020860152610d0b8282610bdd565b9150506040830151610d206040860182610c16565b506060830151610d336060860182610c16565b5060808301518482036080860152610d4b8282610bdd565b91505060a083015184820360a0860152610d658282610c76565b9150508091505092915050565b60006020820190508181036000830152610d8c8184610cd4565b905092915050565b600081519050919050565b600082825260208201905092915050565b6000819050602082019050919050565b600060c0830160008301518482036000860152610ddd8282610bdd565b91505060208301518482036020860152610df78282610bdd565b9150506040830151610e0c6040860182610c16565b506060830151610e1f6060860182610c16565b5060808301518482036080860152610e378282610bdd565b91505060a083015184820360a0860152610e518282610c76565b9150508091505092915050565b6000610e6a8383610dc0565b905092915050565b6000602082019050919050565b6000610e8a82610d94565b610e948185610d9f565b935083602082028501610ea685610db0565b8060005b85811015610ee25784840389528151610ec38582610e5e565b9450610ece83610e72565b925060208a01995050600181019050610eaa565b50829750879550505050505092915050565b60006020820190508181036000830152610f0e8184610e7f565b905092915050565b60008115159050919050565b610f2b81610f16565b8114610f3657600080fd5b50565b600081359050610f4881610f22565b92915050565b600073ffffffffffffffffffffffffffffffffffffffff82169050919050565b6000610f7982610f4e565b9050919050565b610f8981610f6e565b8114610f9457600080fd5b50565b600081359050610fa681610f80565b92915050565b600080fd5b600081905082602060080282011115610fcd57610fcc610fac565b5b92915050565b6000806000806000806101a08789031215610ff157610ff0610b19565b5b6000610fff89828a01610b44565b965050602061101089828a01610f39565b955050604061102189828a01610f97565b945050606061103289828a01610b44565b935050608061104389828a01610b44565b92505060a061105489828a01610fb1565b9150509295509295509295565b600080fd5b600080fd5b7f4e487b7100000000000000000000000000000000000000000000000000000000600052604160045260246000fd5b6110a382610bcc565b810181811067ffffffffffffffff821117156110c2576110c161106b565b5b80604052505050565b60006110d5610b0f565b90506110e1828261109a565b919050565b600067ffffffffffffffff8211156111015761110061106b565b5b61110a82610bcc565b9050602081019050919050565b82818337600083830152505050565b6000611139611134846110e6565b6110cb565b90508281526020810184848401111561115557611154611066565b5b611160848285611117565b509392505050565b600082601f83011261117d5761117c611061565b5b813561118d848260208601611126565b91505092915050565b6000806000606084860312156111af576111ae610b19565b5b600084013567ffffffffffffffff8111156111cd576111cc610b1e565b5b6111d986828701611168565b935050602084013567ffffffffffffffff8111156111fa576111f9610b1e565b5b61120686828701611168565b925050604084013567ffffffffffffffff81111561122757611226610b1e565b5b61123386828701611168565b9150509250925092565b61124681610b23565b82525050565b6000602082019050611261600083018461123d565b92915050565b600082825260208201905092915050565b7f696e76616c696420706f6c6c0000000000000000000000000000000000000000600082015250565b60006112ae600c83611267565b91506112b982611278565b602082019050919050565b600060208201905081810360008301526112dd816112a1565b9050919050565b7f4e487b7100000000000000000000000000000000000000000000000000000000600052603260045260246000fd5b7f4e487b7100000000000000000000000000000000000000000000000000000000600052602260045260246000fd5b6000600282049050600182168061135a57607f821691505b60208210810361136d5761136c611313565b5b50919050565b7f7573657220616c726561647920766f7465640000000000000000000000000000600082015250565b60006113a9601283611267565b91506113b482611373565b602082019050919050565b600060208201905081810360008301526113d88161139c565b9050919050565b7f4e487b7100000000000000000000000000000000000000000000000000000000600052601160045260246000fd5b600061141982610b23565b91507fffffffffffffffffffffffffffffffffffffffffffffffffffffffffffffffff820361144b5761144a6113df565b5b600182019050919050565b61145f81610f16565b82525050565b600060408201905061147a600083018561123d565b6114876020830184611456565b9392505050565b60008190508160005260206000209050919050565b60006020601f8301049050919050565b600082821b905092915050565b6000600883026114f07fffffffffffffffffffffffffffffffffffffffffffffffffffffffffffffffff826114b3565b6114fa86836114b3565b95508019841693508086168417925050509392505050565b6000819050919050565b600061153761153261152d84610b23565b611512565b610b23565b9050919050565b6000819050919050565b6115518361151c565b61156561155d8261153e565b8484546114c0565b825550505050565b600090565b61157a61156d565b611585818484611548565b505050565b5b818110156115a95761159e600082611572565b60018101905061158b565b5050565b601f8211156115ee576115bf8161148e565b6115c8846114a3565b810160208510156115d7578190505b6115eb6115e3856114a3565b83018261158a565b50505b505050565b600082821c905092915050565b6000611611600019846008026115f3565b1980831691505092915050565b600061162a8383611600565b9150826002028217905092915050565b61164382610b86565b67ffffffffffffffff81111561165c5761165b61106b565b5b6116668254611342565b6116718282856115ad565b600060209050601f8311600181146116a45760008415611692578287015190505b61169c858261161e565b865550611704565b601f1984166116b28661148e565b60005b828110156116da578489015182556001820191506020850194506020810190506116b5565b868310156116f757848901516116f3601f891682611600565b8355505b6001600288020188555050505b505050505050565b600061171782610b23565b915061172283610b23565b925082820390508181111561173a576117396113df565b5b92915050565b600081519050919050565b600081905092915050565b600061176182611740565b61176b818561174b565b935061177b818560208601610ba2565b80840191505092915050565b60006117938284611756565b91508190509291505056fea2646970667358221220933265ca73cd7fe7164ea2fa77ca69511ad2ea1f77204548b0e8352ce2c8076b64736f6c63430008120033",
  "linkReferences": {},
  "deployedLinkReferences": {}
}