{
  "_format": "hh-sol-artifact-1",
  "contractName": "Vote",
  "sourceName": "contracts/Vote.sol",
  "abi": [
    {
      "anonymous": false,
      "inputs": [
        {
          "indexed": false,
          "internalType": "uint256",
          "name": "pollId",
          "type": "uint256"
        }
      ],
      "name": "PollCreated",
      "type": "event"
    },
    {
      "anonymous": false,
      "inputs": [
        {
          "indexed": false,
          "internalType": "uint256",
          "name": "pollId",
          "type": "uint256"
        },
        {
          "indexed": false,
          "internalType": "bool",
          "name": "voteType",
          "type": "bool"
        }
      ],
      "name": "VoteCast",
      "type": "event"
    },
    {
      "inputs": [
        {
          "internalType": "string",
          "name": "_title",
          "type": "string"
        },
        {
          "internalType": "string",
          "name": "_description",
          "type": "string"
        },
        {
          "internalType": "string",
          "name": "_fileHash",
          "type": "string"
        }
      ],
      "name": "createPoll",
      "outputs": [],
      "stateMutability": "nonpayable",
      "type": "function"
    },
    {
      "inputs": [],
      "name": "getAllPolls",
      "outputs": [
        {
          "components": [
            {
              "internalType": "string",
              "name": "title",
              "type": "string"
            },
            {
              "internalType": "string",
              "name": "description",
              "type": "string"
            },
            {
              "internalType": "uint256",
              "name": "yes",
              "type": "uint256"
            },
            {
              "internalType": "uint256",
              "name": "no",
              "type": "uint256"
            },
            {
              "internalType": "string",
              "name": "fileHash",
              "type": "string"
            }
          ],
          "internalType": "struct Vote.Poll[]",
          "name": "",
          "type": "tuple[]"
        }
      ],
      "stateMutability": "view",
      "type": "function"
    },
    {
      "inputs": [
        {
          "internalType": "uint256",
          "name": "pollId",
          "type": "uint256"
        }
      ],
      "name": "getPoll",
      "outputs": [
        {
          "components": [
            {
              "internalType": "string",
              "name": "title",
              "type": "string"
            },
            {
              "internalType": "string",
              "name": "description",
              "type": "string"
            },
            {
              "internalType": "uint256",
              "name": "yes",
              "type": "uint256"
            },
            {
              "internalType": "uint256",
              "name": "no",
              "type": "uint256"
            },
            {
              "internalType": "string",
              "name": "fileHash",
              "type": "string"
            }
          ],
          "internalType": "struct Vote.Poll",
          "name": "",
          "type": "tuple"
        }
      ],
      "stateMutability": "view",
      "type": "function"
    },
    {
      "inputs": [
        {
          "internalType": "uint256",
          "name": "pollId",
          "type": "uint256"
        },
        {
          "internalType": "bool",
          "name": "voteType",
          "type": "bool"
        }
      ],
      "name": "vote",
      "outputs": [],
      "stateMutability": "nonpayable",
      "type": "function"
    }
  ],
  "bytecode": "0x6080604052600060015534801561001557600080fd5b50611209806100256000396000f3fe608060405234801561001057600080fd5b506004361061004c5760003560e01c80631a8cbcaa1461005157806332b633fa14610081578063c9d27afe1461009f578063e201201c146100bb575b600080fd5b61006b60048036038101906100669190610842565b6100d7565b6040516100789190610992565b60405180910390f35b610089610325565b6040516100969190610afa565b60405180910390f35b6100b960048036038101906100b49190610b54565b61054e565b005b6100d560048036038101906100d09190610cc9565b61065b565b005b6100df6107c9565b6100e8826107a8565b610127576040517f08c379a000000000000000000000000000000000000000000000000000000000815260040161011e90610dcd565b60405180910390fd5b6000828154811061013b5761013a610ded565b5b90600052602060002090600502016040518060a001604052908160008201805461016490610e4b565b80601f016020809104026020016040519081016040528092919081815260200182805461019090610e4b565b80156101dd5780601f106101b2576101008083540402835291602001916101dd565b820191906000526020600020905b8154815290600101906020018083116101c057829003601f168201915b505050505081526020016001820180546101f690610e4b565b80601f016020809104026020016040519081016040528092919081815260200182805461022290610e4b565b801561026f5780601f106102445761010080835404028352916020019161026f565b820191906000526020600020905b81548152906001019060200180831161025257829003601f168201915b50505050508152602001600282015481526020016003820154815260200160048201805461029c90610e4b565b80601f01602080910402602001604051908101604052809291908181526020018280546102c890610e4b565b80156103155780601f106102ea57610100808354040283529160200191610315565b820191906000526020600020905b8154815290600101906020018083116102f857829003601f168201915b5050505050815250509050919050565b60606000805480602002602001604051908101604052809291908181526020016000905b8282101561054557838290600052602060002090600502016040518060a001604052908160008201805461037c90610e4b565b80601f01602080910402602001604051908101604052809291908181526020018280546103a890610e4b565b80156103f55780601f106103ca576101008083540402835291602001916103f5565b820191906000526020600020905b8154815290600101906020018083116103d857829003601f168201915b5050505050815260200160018201805461040e90610e4b565b80601f016020809104026020016040519081016040528092919081815260200182805461043a90610e4b565b80156104875780601f1061045c57610100808354040283529160200191610487565b820191906000526020600020905b81548152906001019060200180831161046a57829003601f168201915b5050505050815260200160028201548152602001600382015481526020016004820180546104b490610e4b565b80601f01602080910402602001604051908101604052809291908181526020018280546104e090610e4b565b801561052d5780601f106105025761010080835404028352916020019161052d565b820191906000526020600020905b81548152906001019060200180831161051057829003601f168201915b50505050508152505081526020019060010190610349565b50505050905090565b610557826107a8565b610596576040517f08c379a000000000000000000000000000000000000000000000000000000000815260040161058d90610dcd565b60405180910390fd5b80156105dc57600082815481106105b0576105af610ded565b5b906000526020600020906005020160020160008154809291906105d290610eab565b919050555061061e565b8061061d57600082815481106105f5576105f4610ded565b5b9060005260206000209060050201600301600081548092919061061790610eab565b91905055505b5b7fa569f04ac50c7dc602af46da32d6b4bb55adafc0bc482968f959264ea5edde96828260405161064f929190610f11565b60405180910390a15050565b8260006001548154811061067257610671610ded565b5b9060005260206000209060050201600001908161068f91906110e6565b50816000600154815481106106a7576106a6610ded565b5b906000526020600020906005020160010190816106c491906110e6565b50600080600154815481106106dc576106db610ded565b5b9060005260206000209060050201600201819055506000806001548154811061070857610707610ded565b5b9060005260206000209060050201600301819055508060006001548154811061073457610733610ded565b5b9060005260206000209060050201600401908161075191906110e6565b507fab0309b6731a34e8750174d3c2c9591a34a2bf0c1425a30b34122be08d05073960015460405161078391906111b8565b60405180910390a16001600081548092919061079e90610eab565b9190505550505050565b600080805490508210156107bf57600190506107c4565b600090505b919050565b6040518060a0016040528060608152602001606081526020016000815260200160008152602001606081525090565b6000604051905090565b600080fd5b600080fd5b6000819050919050565b61081f8161080c565b811461082a57600080fd5b50565b60008135905061083c81610816565b92915050565b60006020828403121561085857610857610802565b5b60006108668482850161082d565b91505092915050565b600081519050919050565b600082825260208201905092915050565b60005b838110156108a957808201518184015260208101905061088e565b60008484015250505050565b6000601f19601f8301169050919050565b60006108d18261086f565b6108db818561087a565b93506108eb81856020860161088b565b6108f4816108b5565b840191505092915050565b6109088161080c565b82525050565b600060a083016000830151848203600086015261092b82826108c6565b9150506020830151848203602086015261094582826108c6565b915050604083015161095a60408601826108ff565b50606083015161096d60608601826108ff565b506080830151848203608086015261098582826108c6565b9150508091505092915050565b600060208201905081810360008301526109ac818461090e565b905092915050565b600081519050919050565b600082825260208201905092915050565b6000819050602082019050919050565b600060a08301600083015184820360008601526109fd82826108c6565b91505060208301518482036020860152610a1782826108c6565b9150506040830151610a2c60408601826108ff565b506060830151610a3f60608601826108ff565b5060808301518482036080860152610a5782826108c6565b9150508091505092915050565b6000610a7083836109e0565b905092915050565b6000602082019050919050565b6000610a90826109b4565b610a9a81856109bf565b935083602082028501610aac856109d0565b8060005b85811015610ae85784840389528151610ac98582610a64565b9450610ad483610a78565b925060208a01995050600181019050610ab0565b50829750879550505050505092915050565b60006020820190508181036000830152610b148184610a85565b905092915050565b60008115159050919050565b610b3181610b1c565b8114610b3c57600080fd5b50565b600081359050610b4e81610b28565b92915050565b60008060408385031215610b6b57610b6a610802565b5b6000610b798582860161082d565b9250506020610b8a85828601610b3f565b9150509250929050565b600080fd5b600080fd5b7f4e487b7100000000000000000000000000000000000000000000000000000000600052604160045260246000fd5b610bd6826108b5565b810181811067ffffffffffffffff82111715610bf557610bf4610b9e565b5b80604052505050565b6000610c086107f8565b9050610c148282610bcd565b919050565b600067ffffffffffffffff821115610c3457610c33610b9e565b5b610c3d826108b5565b9050602081019050919050565b82818337600083830152505050565b6000610c6c610c6784610c19565b610bfe565b905082815260208101848484011115610c8857610c87610b99565b5b610c93848285610c4a565b509392505050565b600082601f830112610cb057610caf610b94565b5b8135610cc0848260208601610c59565b91505092915050565b600080600060608486031215610ce257610ce1610802565b5b600084013567ffffffffffffffff811115610d0057610cff610807565b5b610d0c86828701610c9b565b935050602084013567ffffffffffffffff811115610d2d57610d2c610807565b5b610d3986828701610c9b565b925050604084013567ffffffffffffffff811115610d5a57610d59610807565b5b610d6686828701610c9b565b9150509250925092565b600082825260208201905092915050565b7f696e76616c696420706f6c6c0000000000000000000000000000000000000000600082015250565b6000610db7600c83610d70565b9150610dc282610d81565b602082019050919050565b60006020820190508181036000830152610de681610daa565b9050919050565b7f4e487b7100000000000000000000000000000000000000000000000000000000600052603260045260246000fd5b7f4e487b7100000000000000000000000000000000000000000000000000000000600052602260045260246000fd5b60006002820490506001821680610e6357607f821691505b602082108103610e7657610e75610e1c565b5b50919050565b7f4e487b7100000000000000000000000000000000000000000000000000000000600052601160045260246000fd5b6000610eb68261080c565b91507fffffffffffffffffffffffffffffffffffffffffffffffffffffffffffffffff8203610ee857610ee7610e7c565b5b600182019050919050565b610efc8161080c565b82525050565b610f0b81610b1c565b82525050565b6000604082019050610f266000830185610ef3565b610f336020830184610f02565b9392505050565b60008190508160005260206000209050919050565b60006020601f8301049050919050565b600082821b905092915050565b600060088302610f9c7fffffffffffffffffffffffffffffffffffffffffffffffffffffffffffffffff82610f5f565b610fa68683610f5f565b95508019841693508086168417925050509392505050565b6000819050919050565b6000610fe3610fde610fd98461080c565b610fbe565b61080c565b9050919050565b6000819050919050565b610ffd83610fc8565b61101161100982610fea565b848454610f6c565b825550505050565b600090565b611026611019565b611031818484610ff4565b505050565b5b818110156110555761104a60008261101e565b600181019050611037565b5050565b601f82111561109a5761106b81610f3a565b61107484610f4f565b81016020851015611083578190505b61109761108f85610f4f565b830182611036565b50505b505050565b600082821c905092915050565b60006110bd6000198460080261109f565b1980831691505092915050565b60006110d683836110ac565b9150826002028217905092915050565b6110ef8261086f565b67ffffffffffffffff81111561110857611107610b9e565b5b6111128254610e4b565b61111d828285611059565b600060209050601f831160018114611150576000841561113e578287015190505b61114885826110ca565b8655506111b0565b601f19841661115e86610f3a565b60005b8281101561118657848901518255600182019150602085019450602081019050611161565b868310156111a3578489015161119f601f8916826110ac565b8355505b6001600288020188555050505b505050505050565b60006020820190506111cd6000830184610ef3565b9291505056fea264697066735822122099cd0c8c99b7e3aa8ecd4a6828de5fb37935efd0f7e421c40ccd7d7fb23ee63164736f6c63430008120033",
  "linkReferences": {},
  "deployedLinkReferences": {}
}