{
  "_format": "hh-sol-artifact-1",
  "contractName": "Vote",
  "sourceName": "contracts/Vote.sol",
  "abi": [
    {
      "anonymous": false,
      "inputs": [
        {
          "indexed": false,
          "internalType": "address",
          "name": "pollId",
          "type": "address"
        }
      ],
      "name": "PollCreated",
      "type": "event"
    },
    {
      "anonymous": false,
      "inputs": [
        {
          "indexed": false,
          "internalType": "address",
          "name": "pollId",
          "type": "address"
        },
        {
          "indexed": false,
          "internalType": "bool",
          "name": "voteType",
          "type": "bool"
        }
      ],
      "name": "VoteCast",
      "type": "event"
    },
    {
      "inputs": [
        {
          "internalType": "address",
          "name": "pollId",
          "type": "address"
        }
      ],
      "name": "createPoll",
      "outputs": [],
      "stateMutability": "nonpayable",
      "type": "function"
    },
    {
      "inputs": [
        {
          "internalType": "address",
          "name": "pollId",
          "type": "address"
        },
        {
          "internalType": "bool",
          "name": "voteType",
          "type": "bool"
        }
      ],
      "name": "vote",
      "outputs": [],
      "stateMutability": "nonpayable",
      "type": "function"
    }
  ],
  "bytecode": "0x608060405234801561001057600080fd5b50610662806100206000396000f3fe608060405234801561001057600080fd5b50600436106100365760003560e01c80639fd43dac1461003b578063bd041c4d14610057575b600080fd5b610055600480360381019061005091906103f8565b610073565b005b610071600480360381019061006c919061045d565b6101a0565b005b6000819080600181540180825580915050600190039060005260206000200160009091909190916101000a81548173ffffffffffffffffffffffffffffffffffffffff021916908373ffffffffffffffffffffffffffffffffffffffff1602179055506000600160008373ffffffffffffffffffffffffffffffffffffffff1673ffffffffffffffffffffffffffffffffffffffff168152602001908152602001600020600001819055506000600160008373ffffffffffffffffffffffffffffffffffffffff1673ffffffffffffffffffffffffffffffffffffffff168152602001908152602001600020600101819055507fa0cf16a3368210e542e588541dc11d0cf5d550130f310e8ef2b87508db3f0c3e8160405161019591906104ac565b60405180910390a150565b6101a9826102e7565b6101e8576040517f08c379a00000000000000000000000000000000000000000000000000000000081526004016101df90610524565b60405180910390fd5b801561024b57600160008373ffffffffffffffffffffffffffffffffffffffff1673ffffffffffffffffffffffffffffffffffffffff16815260200190815260200160002060000160008154809291906102419061057d565b91905055506102aa565b806102a957600160008373ffffffffffffffffffffffffffffffffffffffff1673ffffffffffffffffffffffffffffffffffffffff16815260200190815260200160002060010160008154809291906102a39061057d565b91905055505b5b7fa32151c21b193dcf3d43d553597e960d429ef6cafad3492ee4790e41be1ce52082826040516102db9291906105d4565b60405180910390a15050565b600080600090505b60008054905081101561038a578273ffffffffffffffffffffffffffffffffffffffff1660008281548110610327576103266105fd565b5b9060005260206000200160009054906101000a900473ffffffffffffffffffffffffffffffffffffffff1673ffffffffffffffffffffffffffffffffffffffff1603610377576001915050610390565b80806103829061057d565b9150506102ef565b50600090505b919050565b600080fd5b600073ffffffffffffffffffffffffffffffffffffffff82169050919050565b60006103c58261039a565b9050919050565b6103d5816103ba565b81146103e057600080fd5b50565b6000813590506103f2816103cc565b92915050565b60006020828403121561040e5761040d610395565b5b600061041c848285016103e3565b91505092915050565b60008115159050919050565b61043a81610425565b811461044557600080fd5b50565b60008135905061045781610431565b92915050565b6000806040838503121561047457610473610395565b5b6000610482858286016103e3565b925050602061049385828601610448565b9150509250929050565b6104a6816103ba565b82525050565b60006020820190506104c1600083018461049d565b92915050565b600082825260208201905092915050565b7f696e76616c696420706f6c6c0000000000000000000000000000000000000000600082015250565b600061050e600c836104c7565b9150610519826104d8565b602082019050919050565b6000602082019050818103600083015261053d81610501565b9050919050565b7f4e487b7100000000000000000000000000000000000000000000000000000000600052601160045260246000fd5b6000819050919050565b600061058882610573565b91507fffffffffffffffffffffffffffffffffffffffffffffffffffffffffffffffff82036105ba576105b9610544565b5b600182019050919050565b6105ce81610425565b82525050565b60006040820190506105e9600083018561049d565b6105f660208301846105c5565b9392505050565b7f4e487b7100000000000000000000000000000000000000000000000000000000600052603260045260246000fdfea26469706673582212206c259718dd058ee2a8863eec54a9143496b6ba3650f7d454e03c2c6c05fbc9c464736f6c63430008120033",
  "linkReferences": {},
  "deployedLinkReferences": {}
}